:10200000008000201947000003470000034700003C
:1020100000000000000000000000000000000000C0
:102020000000000000000000000000000347000066
:102030000000000000000000034700006D470000A2
:102040000347000003470000034700000347000068
:10205000D544000003470000034700000547000087
:102060000347000049390000034700000347000010
:1020700049330000034700005939000003470000BE
:102080000347000003470000034700000347000028
:102090000000000003470000034700000347000062
:1020A0000347000003470000034700000347000008
:1020B0000000000010B5064C2378002B07D1054B1B
:1020C000002B02D0044800E000BF0123237010BDA4
:1020D000D000002000000000049E0000044B10B55A
:1020E000002B03D00349044800E000BF10BDC046E8
:1020F00000000000D4000020049E000010B5052060
:1021000002F092FE0400062002F08EFE64002043DE
:1021100002240D490B689B0003439A1EA24303D07F
:102120001A000B3AA24303D1084C22680132226004
:102130000E2B07D8064ADA40D30703D5034A1368A3
:10214000013B1360086010BD5801002014010020FD
:102150008241000010B5084C2000243002F06FFAD4
:102160002000183002F06BFA20000C3002F067FA01
:10217000200002F064FA10BD28010020012110B5F2
:10218000034B0D201A785140197002F021FE10BD4A
:10219000CF01002010B50121132002F019FE2820E4
:1021A00002F028FB0021132002F012FE10BD10B532
:1021B000012002F01FFB10BD10B5064C02222100C9
:1021C000052002F0B5F802222100062002F0B0F846
:1021D00010BDC046FD20000010B5052002F040F9FA
:1021E000062002F03DF910BD10B5FFF7F5FF002203
:1021F000024B1A60FFF7E0FF10BDC046140100203B
:1022000070B50C0005F030FB06F0F2FF184B194AD0
:1022100006F092F906F04AFFC317C11805005940AD
:10222000FF2900DDFF21082002F09CFCE917491B73
:10223000C90F042002F0CCFD691E2943C90F0920F3
:1022400002F0C6FDE317E1185940FF2900DDFF2128
:10225000002002F087FCE117091BC90F032002F0E0
:10226000B7FD611E2143C90F012002F0B1FD70BD11
:102270001E85EF3F85EB51B810B50121042002F017
:102280005BFD0121092002F057FD0121082002F029
:1022900053FD0121032002F04FFD0121080002F04F
:1022A0004BFD0121002002F047FD00210800FFF74F
:1022B000A7FF0A2002F09EFA10BD0000F8B52D4BD2
:1022C000186805F0B1FA2C4B0700186805F0ACFA55
:1022D0002A4B04001E682A4B986D06F089FF0022E5
:1022E000284B06F029F906F0E1FE0500BE4233DA7C
:1022F000381BA64202DB244B1868381A03004B3304
:1023000031DB4B2800DD4B20204B1A681860861A01
:1023100006F002FF1E4A1F4B06F00EF906F0C6FE3D
:102320001D4B04001860300006F0F6FE1B4B002227
:1023300006F002F906F0BAFE194B7D21186020184C
:1023400003007D3312DA7D204042091A7D30491B9B
:102350004019FFF755FFF8BD0020A642D4DA0A4B1A
:102360001868001BCAE74B204042CDE77D28ECDD12
:102370000800EAE7080100201001002010000020FA
:102380005C0100200000044008000020C40100207F
:10239000666666666666D63FC00100200000E03FC4
:1023A0000001002070B500220321094801F0A4FAC1
:1023B000084D09490400280002F0D3F80749002C11
:1023C00000D00749280002F0E9F8002CFDD170BDCB
:1023D0005C01002010040020E6960000DD9600005D
:1023E000E0960000094A03001078984204D00120CA
:1023F0005840137040427047054B00201A788A42BB
:10240000F9D0013019704840F5E7C046CC010020F2
:10241000CD010020114B124A1B6810B5233B114916
:102420001148136000F0A4FF104C1149200002F085
:1024300055F920000F490C3002F050F920000E49E8
:10244000183002F04BF920000C49243002F046F914
:102450000B4A0C49002004F033F810BD1000002096
:10246000F8000020D40100205C0100202801002099
:10247000CA960000C0960000C2960000C4960000F4
:10248000000000205521000010B5044C200000F091
:1024900091FD0349200000F0ADFD10BDD4010020E6
:1024A000801A060070B506000D00084C3921200086
:1024B00000F044FD3100200000F05DFE2900200006
:1024C00000F059FE200000F045FD70BDD401002051
:1024D00070B5084C05007021200000F02FFD01218F
:1024E000A9402000C9B200F046FE200000F032FDF5
:1024F00070BDC046D401002010B5FFF7E9FF1420DD
:1025000002F078F925218020FFF7CCFF31219020BF
:10251000FFF7C8FF0D218F20FFF7C4FF322002F024
:1025200069F910BDF8B505000E00114C39212000E5
:1025300000F004FD2900200000F01DFE200000F046
:1025400009FD32003921200000F0F2FC200000F0EB
:1025500019FDB042FADB0025064FAE4205D020003F
:1025600000F062FE78550135F6E73800F8BDC04648
:10257000D4010020FC00002010B5FFF7A9FF0221C4
:102580009C20FFF7CFFF037840780002184310BD6E
:10259000F8B50320FFF7F0FF2B4C20600620FFF773
:1025A000EBFF2A4B18600220FFF7E6FF284F386048
:1025B0000720FFF7E1FF274B05001860386805F09A
:1025C00053F9254904F024FE244E071C24493068A1
:1025D00004F01EFE011C381C04F0A8FA3060214EE5
:1025E0001F49306804F014FE071C280005F03CF970
:1025F000194904F00DFE011C381C04F097FA3060F4
:10260000206805F031F9144904F002FE164D041C4F
:102610001349286804F0FCFD011C201C04F086FA14
:102620000A4B2860186805F01FF90B4904F0F0FD0B
:102630000E4C051C0A49206804F0EAFD011C281C08
:1026400004F074FA2060F8BD180100202001002079
:10265000040100200C0100203433B33E08010020A7
:102660006666263F100100201C0100202401002086
:10267000F0B58BB003900091141E03D1110010002F
:10268000FFF7BEFD0025804B05209D6502F0B2F8E6
:1026900002F07AF809950690002C69D07B4B0193E3
:1026A000019805F0C1F8802212069446019B07901C
:1026B00063440493049805F0B7F8002300261F0034
:1026C000089002930593704D280000F0D5FFFFF7A6
:1026D0005FFF02F059F8C01B0A28F4D9039BDA17F0
:1026E0009818504005F0C0F8AD6D071C0021281C5B
:1026F00004F008FA002802D180231B06ED18291CDB
:10270000381C04F0B7FE05F08FF80700012833DC11
:10271000029B002B30D102F037F80590002C29D015
:102720007D210800FFF76CFD039B5A2B00D0A2E02F
:10273000009B013300D096E0554A13680333554996
:102740000B4004D50421013B49420B430133136084
:102750000022514B1A60944203D121002000FFF760
:102760004FFD494B099A9A65FFF73EFD0BB0F0BD4E
:102770004A4B94E701230293380005F075F8051CD5
:10278000380006F0C9FC0022454B05F0D5FE06F0E6
:1027900081FD311C071C281C04F06CFE06F028FD8E
:1027A000404A414B05F0C8FE06F074FD061C002CA3
:1027B00009D0381C06F01CFD3C4A3D4B05F0BCFE20
:1027C00006F068FD071C311C381C04F0AFF905F059
:1027D0002BF8060005F048F8019904F093F9002859
:1027E00000D0079E300005F03FF8049904F076F918
:1027F000002800D0089E0098009B70435942714306
:1028000000281DDA002C08D00722CB1713405B18D4
:10281000DB101A00002918DB1800FFF7F1FC029BFF
:10282000002B19D101F0B0FF069BC01AC8239B00F2
:10283000984200D978E701F0A7FF2E1C070042E775
:102840000029EADA002CE8D002000726C11731403F
:102850000918C9101000E0E701F096FF059BC01AA7
:102860006428DFD960E7009B012B00D070E7084A9D
:102870001368013363E7039BB42B00D068E7044A75
:10288000136802335BE7C0465C01002000804A43C6
:10289000F400002003000080C8010020000007436E
:1028A000000012409A99999999990940CDCCCCCCC5
:1028B000CCCCF83F10B50022FFF7DAFE10BD0000C7
:1028C000F8B5071CFFF790FC0023194CA365200006
:1028D00000F0D2FEFFF75CFE164B1749A06D1E6894
:1028E00004F096FC051C300004F0BEFF134904F010
:1028F0008FFC134904F0B4FA002104F017F9011C0D
:10290000381C04F0EBF8002810D1291C0D4804F005
:10291000B1FD04F089FF06000A49281C04F006F9FD
:1029200004F082FF3100FFF76BFCD0E7F8BDC04632
:102930005C01002014010020000020400000204124
:10294000000064420000FA42F7B50C000090FFF767
:102950004BFC0023364EB365002C0BD1AF25ED00A8
:1029600021002000FFF74CFC0134280001F066FF35
:102970007D2CF5D10024300000F07EFEFFF708FE2C
:102980002C4B186804F070FF2B4904F041FC2B49D4
:1029900004F066FA002104F0C9F8011C009804F064
:1029A00069FD2749051CB06D04F032FC211C071C91
:1029B000281C04F05FFD011C04F0B8F82149041C38
:1029C000281C04F025FC011C201C04F0AFF81E4953
:1029D000041C04F083F8002826D11C49201C04F0B4
:1029E00091F8002822D1391C201C04F043FD04F08A
:1029F0001BFF391C0190201C04F098F804F014FF10
:102A00000199FFF7FDFB0021281C2C1C04F070F835
:102A10000028B0D0FFF7BEFB00210800FFF7F0FB55
:102A20001E2001F0E7FEF7BD074CDCE7074CDAE7B4
:102A30005C010020140100200000204100006442DD
:102A4000000020400000B8410000C8410000FA42E8
:102A500070B505000524FFF79BFD0520002D00D172
:102A60000220013C01F0C6FE002CF4D10C4B0125E4
:102A700019680C4B186804F045F8002800D1251C93
:102A8000094B01241D70094B1968094B186804F0A3
:102A900039F8002800D1041C064B1C7070BDC046DC
:102AA0000400002008010020CC0100200C000020C0
:102AB00010010020CD01002070B5050001F064FE7A
:102AC0000400012001F096FE01F05EFE001BA8420A
:102AD00005D2FFF75DFD024800F0CEFDF4E770BDC2
:102AE0005C010020F0B5050087B0964800F0C4FDF9
:102AF000FFF74EFDFFF7E2FB934B01241B680193A8
:102B0000924B01981F68391C03F0FCFF002800D18C
:102B10000024E3B204938E4B01241B6802938D4B77
:102B200002981B68191C039303F0ECFF002800D1E6
:102B30000024E3B20593884B186804F095FE87499A
:102B400004F066FB864904F08BF9002103F0EEFFE8
:102B5000844904F085F904F067FE834B06001A7877
:102B6000002A01D000221A70804B1A78002A52D015
:102B700000227F4C1A7031000A32200001F05BFD08
:102B80007C49200001F0F8FC7B49200001F0F4FCB6
:102B90007A4B200019680C234B437949C91801F07E
:102BA000E4FC7849200001F0E7FC774B0A22196821
:102BB000200001F040FD7549200001F0DDFC744B60
:102BC0000A221968200001F036FD7249200001F048
:102BD000D3FC391C019803F095FF6F49002800D100
:102BE0006E49200001F0C8FC6D4B6E4A1B681268EC
:102BF0006A499B18652B00DD6B49200001F0BCFC85
:102C00000399029803F07EFF6849002800D16349C8
:102C1000200001F0C3FC664B1A68B24205D01E606A
:102C20000123514A1370514A137004990E2002F087
:102C3000CFF805990B2002F0CBF805990498FFF71F
:102C4000D1FB574B574A1B68126804009B183D2B59
:102C500064DD584B186804F007FE3D4B041C1E68E9
:102C6000394B196803F03AFF311C002832D0201C80
:102C700003F034FF002844D04F493D4801F07CFC6C
:102C8000012282201100C005FFF75EFE0121B42061
:102C9000FFF710FE322149420800FFF7B1FAAF20DA
:102CA000800001F0A7FD00210800FFF7A9FA00202D
:102CB000FFF7CEFEC82001F09DFDFFF795FA052035
:102CC00001F098FD00221F4B9A650520FFF7F4FEE6
:102CD00007B0F0BD201C03F001FF002801D16B1CE0
:102CE00015D101220121204B49421A701F4B1A7045
:102CF0005A20FFF7BDFC0020FFF7AAFEFFF774FA89
:102D0000E3E7311C201C03F0E9FE0028E7D1012194
:102D1000154B0A001970154B1970E9E70028D4D03B
:102D20006B1C09D1431CD0D12448FFF7C9FD631C9B
:102D3000D7D0012CEBD0C8E7012DC6D10128C4D1D2
:102D4000F2E7C0465C0100200801002004000020DA
:102D5000100100200C000020140100200000204180
:102D6000000064420000C841D0010020CE010020D4
:102D700010040020DB960000D2960000F400002032
:102D800028010020D4960000EC000020D896000016
:102D9000F0000020DA960000CC960000CE960000ED
:102DA0001801002020010020D0960000E4960000C9
:102DB000C8010020F8000020C69600000000D040A6
:102DC00010B5012464422000FFF78CFEFBE70000F1
:102DD00010B5FFF7DDFB0A4800F04EFC094B1B68FD
:102DE000C82B05DCFFF7CAF9322001F003FDF0E73C
:102DF000FFF7D0F90122044B1A70FFF7BFF910BD9D
:102E00005C01002004010020CF01002070B50125E5
:102E1000FFF7BEFB124800F02FFC124B124C1B6850
:102E2000C82B0EDC21780E206940217001F0D0FF04
:102E300021780B20694001F0CBFF642001F0DAFC1F
:102E4000E6E7FFF7A7F92570FFF798F900210E20B4
:102E500001F0BEFF00210B2001F0BAFF70BDC0469B
:102E60005C0100200C010020CF010020E12170B5A1
:102E700049022B4801F026F8FFF7FEF9FFF704FBA3
:102E8000FFF790FA0121132001F056FF01210D20D8
:102E900001F052FF01210E2001F04EFF01210B2015
:102EA00001F04AFF0221052001F046FF0221062021
:102EB00001F042FF0320FFF71FFB0220FFF71CFB7E
:102EC0000620FFF719FB0720FFF716FBFFF780FF2F
:102ED0000122144D1100280000F050FB00230024B3
:102EE000AB65FFF793FF6420FFF7E6FD0E4B1C6018
:102EF000FFF762F9280000F0BFFBA96D081C03F082
:102F000015FE04F091FC211A0019FFF779F901343C
:102F1000FA2001F093FC7D2CECD1FFF751FFC04665
:102F2000100400205C0100201401002000207047E4
:102F300010B503689C6B0123A04710BD8C230022B1
:102F40009B00C154103BC3185A609A60DA60012399
:102F50008375704710B5036801211B6B984710BD3E
:102F6000F8B505000E0017000024BC4208D02B68FD
:102F7000315D1B6828009847002801D00134F4E730
:102F80002000F8BDFC30406A704770478E239B00DC
:102F9000C15070478D239B00C15070470300FC3324
:102FA0005A6A002A03D01B6AC018007E70470120AD
:102FB0004042FBE770B5060018250C49006900F097
:102FC00055FF306900F0B6FD2B000821307D084C1C
:102FD0004343E318595601F03FFF0821707D4543F4
:102FE0006419615601F038FF70BDC046A08601002B
:102FF0004897000070B504000D00006900F0AFFDB7
:103000002900206900F032FF206900F093FD70BDB7
:1030100010B5006900F0A3FD10BD0000F7B50193E5
:10302000FA238026002504009B008360134B760062
:1030300008330F0045602900009203603200183009
:1030400006F01FFA23002000FC332530DD6132003A
:103050001D6229005D62FF3006F013FA88239B0091
:10306000E3185D609D60DD606B461B78276123750A
:103070006B461B79A57520006375FEBDF8960000B0
:1030800070B506001825006900F0CAFE306900F02E
:1030900051FD2B000821307D064C4343E31859565F
:1030A00001F0DAFE0821707D45436419615601F094
:1030B000D3FE70BD4897000010B50022FFF7E0FF77
:1030C00010BD0300802210B5FC33DC68520094422E
:1030D00008D05A6881545A680132D2B25A60DA680C
:1030E0000132DA6010BDF7B50400171E019302D15A
:1030F00000252800FEBD03000022FC33DA611A62BD
:103100005A620069013200F05DFD061EF0D0230016
:1031100020691833009300F0E8FD01000098FFF7E4
:10312000D0FF01252069BD4214D000F0BCFD00286D
:103130000FD0206900F026FD0221206900F02CFD4F
:10314000206900F0D2FD01000098FFF7BAFF0135B9
:10315000E8E70600206900F00CFD019B002B06D07B
:10316000002E06D00321206900F016FDC1E7002ED5
:10317000BFD1013DBDE7002310B5827D9A420CD03E
:10318000882292008218D46880225200944204D08F
:103190002530FF30FFF795FF0123180010BD030015
:1031A000FC33DA68002A09D09A68805C9A68013298
:1031B000D2B29A60DA68013ADA6070470120404280
:1031C000FBE700228C2370B59B00827504000E0083
:1031D000C15C006900F0F6FC002806D103212069DB
:1031E00000F0DAFC0225280070BD88239B00E3185C
:1031F000DD68002D11D020002530FF302569FFF754
:10320000CEFFC1B2280000F01FFD0028EDD1032140
:10321000206900F0C1FC0325E5E7002EE3D003217F
:10322000206900F0B9FCDEE710B51830FFF7B7FFF2
:1032300010BD70B50400006900F02CFD002815D009
:10324000206900F03EFD002811D0206900F09AFCB2
:103250000321206900F0A0FC8E239B00E558002D7F
:1032600035D10023FC34E3612362636270BD2069C1
:1032700000F031FD002809D0206900F027FD00286A
:1032800004D0206900F02CFD0028DED0206900F079
:1032900022FD002821D1206900F00EFD0028E5D094
:1032A000206900F01DFD002833D088239B00E3181F
:1032B000DB68FF21002B05D020002530FF30FFF711
:1032C0006EFFC1B2206900F0D7FCA075CEE723687D
:1032D00020001B699847A847C3E7206900F052FC0B
:1032E0002069032100F058FC206900F0F9FC002857
:1032F000BCD0882300229B00E3185A609A60DA60F1
:103300000123A3758D239B00E3589342AED09847C9
:10331000ACE72300FC335A6A802320695B009A42A1
:1033200006D100F026FC0321206900F035FC9DE762
:1033300000F0DBFC010020001830FFF7C2FE20691E
:1033400000F020FCEFE7000010B50248FFF771FF26
:1033500010BDC046D401002010B515231422024927
:103360000248FFF75BFE10BDB0080020D40100202A
:103370000023037068330372054B4160036600232A
:1033800043618361C3610362436283627047C046E5
:1033900048E17A3F70B504000E0015004068217ABC
:1033A0000368DB6A98476068310003681B689847C8
:1033B0006068290003681B689847606803685B6B56
:1033C000984770BD030010B5012003290BD80800F1
:1033D00003F0DCFA020A0E12094ADA6000221B210D
:1033E0001800FFF7D7FF10BD064ADA600822F6E79B
:1033F000054ADA601022F2E7044ADA601822EEE7A2
:1034000000000343000083423333034233338341DC
:10341000030010B5012003290CD8080003F0B6FA08
:10342000020B10158D22D2051A6100221C211800F2
:10343000FFF7B0FF10BD8C22D2051A610822F5E714
:103440008B22D2051A611022F0E78A22D2051A6176
:103450001822EBE77FB504004068217A0368002654
:10346000DB6A984760683B2103681B68984760687F
:10347000002103681B6B98476068217A03680E225D
:10348000DB6B9847606803685B6998470500606874
:103490002D0203685B6998476A467300284301362A
:1034A0009852072EEED16B4625690020185E04F075
:1034B000DBF9291C03F0D4FC216A03F0DBFF6B4627
:1034C00020630220185E04F0CFF9291C03F0C8FC29
:1034D000616A03F0CFFF6063012023785840C01A6F
:1034E00004F0C2F96B46061C0420185E04F0BCF917
:1034F000011C301C03F08CFE291C03F0B1FCA16AF6
:1035000003F0B8FF6B46A0630620185E05F004FECA
:103510000022184B04F0F2F90022174B04F00AFDC8
:1035200005F0B8FE6B46E568E0620820185E04F01E
:103530009BF9291C03F094FC616903F09BFF6B4627
:10354000E0630A20185E04F08FF9291C03F088FC60
:10355000A16903F08FFF6B4620640C20185E04F015
:1035600083F9291C03F07CFCE16903F083FF6064AC
:103570007FBDC046003EC84000407540F0B589B0F0
:103580000400069107920023002902D04361836161
:10359000C361079A002A02D023626362A362FA23FE
:1035A00000255B0000930195059504950395029510
:1035B0002000FFF74FFF216B049803F0B7FA616B0F
:1035C0000490039803F0B2FA0390A06B05F010FE8C
:1035D0000022274B05F022FA060002980F0005F0A2
:1035E00007FE0B0002003900300004F087F905F0F7
:1035F00051FEE16B0290059803F098FA216C05905A
:10360000019803F093FA616C0190281C03F08EFA84
:10361000051C012001F0EEF8009B013B0093002BFC
:10362000C6D1079B002B0ED01249049803F018FC5A
:1036300010492062039803F013FC0E49606202985F
:1036400003F00EFCA062069B002B0ED009490598E2
:1036500003F006FC07496061019803F001FC05498D
:10366000A061281C03F0FCFBE06109B0F0BDC0467E
:103670000000F03F0000FA43F0B5040087B0FFF708
:10368000E9FEA56B0021281C03F046FA431E984171
:103690000126404206400021281C03F01FFA431E69
:1036A0009841012740420740F01B04F0DDF8291C37
:1036B0000390281C03F0ACFD266B051C311C301C4C
:1036C00003F0A6FD011C281C03F030FA676B02F022
:1036D00003FF011C039803F09BFD011C381C02F042
:1036E000F7FE05F085FD7A4A7A4B04F025FF05F0D8
:1036F000D1FDA16BA064081C03F08AFD656B071C5B
:10370000291C281C03F084FD011C381C03F00EFA50
:10371000266B02F0E1FE011C301C02F0D9FE802372
:103720001B06C01805F064FD694A6A4B04F004FFEB
:1037300005F0B0FDE06401F027F8E36D0500C01A64
:1037400005F024FD644A654B04F0F6FE05F0A2FD89
:10375000E16BE565A66C0290276E03F059FD216DC3
:1037600003F0E4F9311C03F085FE5D49051C03F00C
:10377000C9F9002802D05B49281CF4E75A49281CE3
:1037800003F0ACF9002805D0281C564903F0CEF907
:10379000051CF3E7381C05F02BFD02000B00002090
:1037A000524905F03BF900900191291C301C03F0AF
:1037B000BDF9391C03F02CFD05F01AFD04900591AC
:1037C000301C05F015FD009A019B04F0B5FE0200C7
:1037D0000B000498059904F091F805F05BFD404951
:1037E000051C03F08FF9002804D03E49281C03F083
:1037F00041FEF4E73C49281C03F070F9002805D08D
:10380000281C384903F092F9051CF3E72565216C63
:10381000039803F0FDFCE56C029903F0F9FC616D7F
:1038200003F084F9291C03F025FE3149061C03F03E
:1038300069F9002802D02A49301CF4E72D49301CD0
:1038400003F04CF9002805D0301C254903F06EF92F
:10385000061CF3E7311C281C03F068F9391C03F03F
:10386000D7FC05F0C5FC0600281C0F0005F0C0FCC5
:10387000009A019B04F060FE02000B00300039004A
:1038800004F03CF805F006FD1949051C03F03AF96F
:10389000002804D01249281C03F0ECFDF4E7154978
:1038A000281C03F01BF9002805D0281C0C4903F044
:1038B0003DF9051CF3E7616C6565029803F0A8FC0F
:1038C000011CA06D03F032F9A06507B0F0BDC04641
:1038D000CB67791EDCA54C40FCA9F1D24D62503F6C
:1038E000000034430000B443000034C30000F03F44
:1038F0000000B4420000B4C2F8B50F0016006B21FE
:1039000001220400FFF746FD0022050019212000D6
:10391000FFF740FD00221A212000FFF73BFD390090
:103920002000FFF74FFD31002000FFF771FD200060
:10393000FFF7A2FEA36C2365E36C636500F024FF30
:10394000E0652800F8BD000010B5024800F035FC25
:1039500010BDC0465406002010B5024800F02DFCF2
:1039600010BDC04610040020F7B501240326154FF2
:103970001549380000F042F81449154800F03EF8A7
:103980001449154800F03AF81449154800F036F883
:103990001449154800F032F8144D1549280000F07C
:1039A0002DF839000096230001940022114800F000
:1039B0007DFB0096290001941E231F220E4800F073
:1039C00075FBF7BD9808002000080042000C00427B
:1039D000A008002000100042A808002000140042A7
:1039E000B008002000180042B8080020C0080020DD
:1039F000001C004254060020100400200023037124
:103A0000016070479446F0B59E1E721E9641624654
:103A1000056892072F6836063A4332432A60072525
:103A200005AC24780068A4012940214342680024A1
:103A3000022B00D05C03114321434160F0BD30B53F
:103A4000C0250368AD031C6812052A402243C02428
:103A50000904A40221401143196003685A68144301
:103A60005C6030BD0123026811680B43136003687A
:103A70001A68D207FCD4DA69D207F9D47047022356
:103A8000026811680B4313600268D3699B07FCD47A
:103A900070470268137E9B0702D40379002BF9D18B
:103AA000002303717047002203685A83704703683C
:103AB000187E4007C00F70470368187EC009704722
:103AC000802302685B42117E0B43137670470368C4
:103AD000588B8007C00F704702230268518B0B433D
:103AE000538370470368187EC007C00F7047036890
:103AF000188DC0B2704703681A7ED207FCD589B210
:103B000019850123037118007047012203689A7513
:103B10007047012203681A75704701230268116813
:103B20000B43136003681A68D207FCD4DA69D20722
:103B3000F9D470470223026811680B4313600368CD
:103B4000DA699207FCD430215A8B8A431100102283
:103B50000A435A830268D3695B07FCD47047022189
:103B6000026813688B4313600268D3699B07FCD417
:103B7000704780230268DB02116851680B43536071
:103B800070470000036803491A685A680A405A607F
:103B90007047C046FFFFFBFF032230B503681140AA
:103BA0001C68074D5A6809042A40E4061143640F53
:103BB0005960052C03D10268D3695B07FCD430BD82
:103BC000FFFFFCFF70B5056804006B8B9B069B0F25
:103BD000022B0DD06B8B00209B069B0F032B32D04A
:103BE0006B8B9B0704D56B8B9B069B0F012B2AD1FC
:103BF0006B6A49001143DB0AC9B2DB020B436B62FB
:103C00002368002A13D11A7ED207FCD55B8B9B0652
:103C10009B0F022B04D0490800222000FFF7D2FF9F
:103C20002368588B4007C30F012058400BE0187ED3
:103C30008007C00FF4D11A7ED207F8D5C022596888
:103C400092020A435A6070BD0368283319700268F3
:103C5000107EC007C30F508B002B06D1C007C00FCA
:103C600008D1538B9B07F3D570474007C30F012042
:103C70005840F9E71800F7E703682833197003681C
:103C800000201A7E520704D5588B01234007C00F2D
:103C90005840704703681868C006400F0438434214
:103CA0005841C0B270470368588B8006800F0238B5
:103CB00043425841C0B270470368187E4007C00FA6
:103CC00070470368187EC007C00F70470368588BA1
:103CD000C006C00F70470368187E8007C00F70478A
:103CE0000368588B0007C00F704703681A68D20634
:103CF000520F052A05D11A7E920702D41A7ED207E6
:103D0000F9D528331878C0B2704700000368214AFB
:103D100030B593422FD0204A93422FD01F4A93426E
:103D20002FD01F4A93422FD01E4A93422FD01E4AB3
:103D300093421FD10E2319220121032599401B48CC
:103D4000C024016099082B40AB40FC359D408900A0
:103D50000918A4000859A843C0259D402B0003431F
:103D60000B518023DB011A43114B5A805A7852B20F
:103D7000002AFBDB30BD09231422DDE70A231522CC
:103D8000DAE70B231622D7E70C231722D4E70D23FB
:103D90001822D1E700080042000C00420010004247
:103DA0000014004200180042001C004200E100E044
:103DB000000C0040F8B504000F0016001D00FFF7CE
:103DC000A5FF2000FFF74EFE1C21BB000B40710732
:103DD0002268090C0B431360842322689375012F1A
:103DE0001AD11021012E00D008390C4B69431868F4
:103DF000C00002F0D5FD0722216802408B895203E2
:103E0000DB04DB0C13438B81226803049089DB0CF9
:103E1000400B400318439081F8BDC0462C000020A1
:103E200070B504000D001600FFF770FF2000FFF7CB
:103E300074FE1C2221686D000B6893431A00102346
:103E40001343FF220B60236815405D62002E04D0EF
:103E500001232268516A0B4353620723226893753A
:103E60002268D3695B07FCD470BD0000F8B504007C
:103E70000F00FFF74BFF2000FFF74FFE14222368CF
:103E800079001A600C4B25681E68300002F088FD2E
:103E90000A490400300002F083FD7D23FA215843D3
:103EA000C90002F07DFDFF23241AE868053C1C4090
:103EB00098430443EC60F8BD2C00002040420F0002
:103EC0000120704710B50368014A1B6A984710BD6E
:103ED00013040000FC30006A704787239B00C01861
:103EE000C36880204000C01A70470300FC331A6A80
:103EF000002A03D0DB69C018007D704701204042D2
:103F0000FBE710B504000069FFF7ACFD22000023B9
:103F1000FC329361D361136287229200A41863601C
:103F2000A360E36010BD872310B59B00C218D3685F
:103F3000002BFCD10069FFF7ACFD10BD0368002B1E
:103F400002D162B6BFF36F8F7047F0200140303965
:103F5000484248417047F0231B0119408023062046
:103F60009B0099420AD00133FF330130994205D0BA
:103F7000802302385B00994200D0002070470F2058
:103F800001400020012903D00239481E8141481C0C
:103F9000704700008B23F0B5182685B002919B0076
:103FA0000400C05C330008214343324D1700EB1876
:103FB000595600F051FF304B0821E05C3300434379
:103FC000EB18595600F048FF2C4BE25C0393022A91
:103FD00009D11133E05CFF2805D008214643AE1912
:103FE000715600F039FF8C26B600A05DFF2819D06D
:103FF000012100F0A1FE1822A35D21495A43AB56CE
:10400000AD18DB0158188D21890060501D4901222F
:104010005B188E218900635069688A408F2189006E
:1040200062501A600122029B11002069FFF7C2FE54
:1040300039002000FFF78FFF390005002000FFF74F
:104040009EFF390006002000FFF77FFF330000903D
:10405000290020690122FFF7D5FC0B4B2069E25CA7
:10406000039BE15CFFF7EBFC2069FFF708FD05B05F
:10407000F0BDC046489700002D0200002F0200004E
:1040800018440041144400412E020000802210B563
:1040900004005200002105F0F4F923000022FC3353
:1040A0005A6020009A60DA6010BD0000F7B51D006C
:1040B00008AB1B780400009309AB1B781600019332
:1040C00000234360FA239B008360114B0F000833E9
:1040D00003601430FFF7DAFF20002130FF30FFF7D4
:1040E000D5FF8B236A469B002761E654094B127863
:1040F000E554094B2000E2546A46084B1279E25419
:104100008C22313BFF3B9200A3541032A354FEBDDE
:10411000989B00002D0200002E0200002F020000DC
:10412000F7B5EFF3108300930123019372B6802655
:104130000200FF25019BFC327600013B5C1C0FD086
:10414000D4685F1EB44209D05468015554680134E4
:104150002C405460D4680134D460EEE73B00EDE7B6
:1041600068460193FFF7EAFEF7BD13B5EFF310833E
:1041700000930123019372B6019B5A1E0192002BFA
:1041800015D00300FC33DA68002A0DD09A68845CED
:104190009A680132D2B29A60DA68013ADA60684607
:1041A000FFF7CCFE200016BD01246442F7E701248E
:1041B0006846FFF7C3FE6442F4E710B504000069E7
:1041C000FFF785FC002805D02069FFF790FC2069E7
:1041D000FFF782FC2069FFF76AFC00281BD02069EA
:1041E000FFF785FC010020001430FFF799FF8C23B6
:1041F0009B00E35CFF2B0ED02300FC331A6A802364
:104200005B009B1A092B06DC8D238F229B009200FA
:10421000E358A2581A602069FFF764FC00280ED00A
:1042200087239B00E318DB68002B14D0200021308B
:10423000FF30FFF79AFFC1B22069FFF75CFC2069ED
:10424000FFF73AFC002805D02069FFF739FC206908
:10425000FFF729FC10BD2069FFF75BFCEFE70000CA
:10426000F8B5040000690D00FFF73CFC87239B00B4
:10427000E618002802D0F368002B34D001278022F2
:10428000F3685200934223D1EFF310833B4210D1E5
:10429000174B5B68DB05DB0DF1D0103B5BB2002BED
:1042A00010DAF13A1340083B9B08124A9B009B1816
:1042B0001B682069FFF716FC0028E0D02000FFF7FC
:1042C0007CFFDCE79B08C0330B4A9B009B58F0E760
:1042D00020002130FF302900FFF722FF2069FFF77F
:1042E00014FC0120F8BD29002069FFF704FCF8E761
:1042F00000ED00E01CED00E000E100E010B504007E
:104300001430FFF732FF8C239B00E35CFF2B0ED0B1
:104310002300FC331A6A80235B009B1A0A2B06DDFC
:104320008E238F229B009200E358A2581A6010BD82
:10433000F7B501921822162442433F4B07009B1801
:104340001C570091631C6ED0102C6CD03B4B3C4E24
:104350001D68002D27D1290044223A4805F091F824
:1043600029004422384805F08CF81022374B384990
:104370001D60CA67C021C120364B49005A508000D9
:104380001958FF35A94319501A60334B334A5A80E4
:1043900002233278134333707378DB09012BFBD08F
:1043A0000122264B1A600125A540736900212B4389
:1043B0007361380000F050FD009B002B31D00027C6
:1043C000224B20499C461B68BA00BB421DD1604667
:1043D000013303608D501C4B00999950072C19DD57
:1043E0000123083CA4000721A140154A9B009B180B
:1043F0009A698A439A61019A042A12D8100099692D
:1044000002F0C4FA0B12141618008858A842E1D022
:104410000137D9E7A4000023E5E70522A2400A43BB
:104420009A61ADB2F560F7BD0422F7E70322F5E724
:104430000222F3E70122F1E748970000500900202B
:10444000001800400C090020C80800205409002072
:1044500004E100E000E100E0000C00400540000045
:1044600018234343164870B5C0181623C3565A1C68
:104470000FD0102B0DD001209840124B82B29A60C1
:104480005A69114D82435A61002229680F4C9142AA
:1044900000D170BD93001E59864205D10C480139E8
:1044A000914203D82960F4E70132F0E7E618766814
:1044B0000132E650C61876681E500433F0E7C04655
:1044C0004897000000180040540900200C09002003
:1044D000C8080020F8B50024094B1B68A34200D887
:1044E000F8BD084E084FA5003369EA591A4204D0B6
:1044F000064BEB589847EB5933610134ECE7C04663
:1045000054090020001800400C090020C8080020B1
:10451000F7B506000D000C008B180193019B671B7B
:104520009C4207D0336821781B68300098470134DB
:104530000028F3D13800FEBD70B5040008000D005E
:1045400005F06CF82368020029005B68200098479A
:1045500070BD10B50B1E02D0FFF7EEFF0300180070
:1045600010BD10B5FFF7F5FF10BD10B503688A68E0
:104570005B680968984710BD10B5FFF7EAFF10BDEA
:1045800010B503681B68984710BD000010B50249BC
:10459000FFF7D2FF10BDC046CC9B000070B50400F1
:1045A000FFF7D7FF05002000FFF7F0FF401970BDAF
:1045B000F0B58BB06B461500002205330600DA77A4
:1045C0000800012D00D80A2509AC290002F06EFA76
:1045D000CAB2130037330700DBB2092902D813002F
:1045E0003033DBB2013C2370002FEED121003000CC
:1045F000FFF7AFFF0BB0F0BDF8B506000C00151EBD
:1046000004D10368C9B21B689847F8BD0A2A0CD1C7
:1046100000290BDA2D21FFF7B3FF614207002A00C2
:104620003000FFF7C5FF3818EFE7D2B221003000A5
:10463000FFF7BEFFE9E710B5FFF7DEFF10BD10B5CD
:1046400004000068002801D004F008FF200010BD1D
:1046500010B504000068002801D004F0FFFE00231C
:104660002360A360636010BD70B504000D00006896
:10467000013104F0B7FF031E01D0012028C470BD32
:10468000036810B50400002B04D043688B4201D3AB
:10469000012010BD2000FFF7E7FF0028F9D0A36834
:1046A000002BF5D122681370F3E770B50E001100EE
:1046B00004001500FFF7E4FF002804D12000FFF7F5
:1046C000C7FF200070BD2A003100A560206804F0FB
:1046D000CFFE00232268A1685354F2E7002370B58F
:1046E00004000D00036043608360994207D0080016
:1046F00004F094FF290002002000FFF7D6FF2000FD
:1047000070BDFEE7034B10B51B68002B00D0984727
:1047100010BDC0465809002070B50F490F4CA1428A
:1047200004D100F0BBF800F099F8FEE70C4D00232F
:104730008D42F6D0CA18E818A24205D3094B82422E
:10474000EFD00949002204E0006804331060F1E76B
:1047500004C38B42FCD3E4E700000020D00000201B
:10476000089E0000D0000020A80F002010B500F027
:1047700071F8002801D100F057F810BD014B186006
:104780007047C04658090020014B18687047C04662
:104790005C090020F7B51348012284461249134CE6
:1047A0008E68636805689B0E134001928868626892
:1047B000019F920E3A4067463F6893420ED1BD4238
:1047C0000CD186420AD35B19FA254868AD00861BD6
:1047D00007486B437043000DC018FEBD3D00130039
:1047E0000600E3E75C09002010E000E000ED00E0D7
:1047F0005555000070B5041E10D0FFF7CBFF050023
:1048000000F027F8FFF7C6FF054B401B9842F7D989
:10481000FA23013C9B00ED18002CF3D170BDC0467B
:10482000E70300007047000010B5034A1368013326
:10483000136000F083FB10BD5C09002010B5002858
:1048400006D030230321584302F0AAF80138FDD1E5
:1048500010BD7047002070477047000010B500F091
:10486000CDF804F0CDFDFFF7F7FF0120FFF7C2FF01
:10487000084C200001F0DEFA200000F0E3FCFEF717
:10488000F5FAFDF794FC044B002BFAD000E000BFD2
:10489000F7E7C04690090020000000001E2270B516
:1048A00046484749436893431C3A134343600823EF
:1048B0008C6923438B61434C434B9C829C8A1443F9
:1048C0009C82DC681442FCD00124404A14701578A4
:1048D000254203D055786DB2002DF8DB0124946099
:1048E000547864B2002CFBDB394C5460547864B2C9
:1048F000002CFBDB8224E4015480547864B2002C49
:10490000FBDB02249C840E34DD682542FCD0314C54
:10491000DC621024DD682542FCD09D8C2E4C2C439B
:104920009C841024DD682542FCD002249D8C8026C6
:104930002C439C844024DD683542FCD0DD68254250
:10494000F9D01024DD682542FCD00024946054780E
:1049500064B2002CFBDB214C5460547864B2002C10
:10496000FBDB1C6A1E4D2C4080251C621C6AAC437C
:104970001C62032393601B4B536053785BB2002B84
:10498000FBDB0023FF240B72174A4B728B72CB7236
:10499000164B1A60164B174A1B6811689A065B0182
:1049A000C90E2340520F12020B431343124A1385C0
:1049B000802342681343436070BDC04600400041FD
:1049C000000400400C06000000080040000C0040FD
:1049D00001050100B905FF7D040A0000000703007E
:1049E000FFFCFFFF03060100006CDC022C0000202E
:1049F000246080002060800000400042FA21314B9A
:104A000010B51868890001F0CBFF2F4B0138984290
:104A100056D82E492E4A4860C020136A00061B0251
:104A20001B0A03431362002407238C600B60802160
:104A3000136A09061B021B0A0B431362FC22254B57
:104A4000196A0A431A62FC22196A92010A431A621D
:104A5000A022196AD2020A431A62E0B2002101348C
:104A600000F06AF9142CF8D11B4B1C005A7852B292
:104A7000002AFBDB194A5A80194B1A00597EC909D2
:104A80000129FBD0E421C90099803F21D970537ED0
:104A9000DB09012BFBD0C02300205B011361907068
:104AA00000F02EF863785BB2002BFBDB0D4B0E4A57
:104AB0006380D379DB09012BFBD04123537010BDF8
:104AC000FEE7C0462C000020FFFFFF0010E000E0E2
:104AD00000ED00E000040040000C00401E4000001B
:104AE000004000422140000000480042914202D0B4
:104AF00002D98A1AD0407047521A9040FBE7000052
:104B0000164A00B51300517EC9090129FBD00138AE
:104B1000042816D81969124A0A400F211A615A78D6
:104B20008A4301F033FF0308060B03001100012242
:104B30000A435A7000BD11000322F9E71100022256
:104B4000F6E7F02311691B050B430F21136153781E
:104B50008B43190002230B435370EBE700400042E4
:104B6000FFFFFFF018234343F0B56A4A87B09B1854
:104B7000DA6806000C000092920722D51B7C5BB21B
:104B8000002B01D0142B1AD1634B0A221968200084
:104B9000FFF7ACFF614A1300D179C9090129FBD0A5
:104BA0008005800D1081DA79D209012AFBD002221A
:104BB00019780A431A70DA79D209012AFBD007B0B2
:104BC000F0BD0827009A544D3A40019200D191E07F
:104BD00012229B5E2968200010220193FFF786FFB6
:104BE000019B05001F126B461C79009B0421DB060C
:104BF00000D40521300000F02FF9494BBA00D658F7
:104C0000484BDA5D002A54D10132DA5546490F3259
:104C100002A804F02DFC02AA7B009B5A8022D2013C
:104C20001A43424B5A805A78D209012AFBD00222F9
:104C300097421BD9338893433380F37BDB09FCD144
:104C40003288403313433380F37BDB09FCD10C34CF
:104C5000ADB26400A553F37BDB09FCD1328802338B
:104C600013433380F37BDB09FCD1A8E7336893431C
:104C70002F4A33601300B1681142FCD10222F16B5C
:104C80000A43F263B2681A42FCD11034A40034190A
:104C90006560B2681A42FCD1264A3264B2681A4290
:104CA000FCD1022231680A433260B2681A42FCD158
:104CB00085E7022F07D90C34ADB26400A553F37B0E
:104CC000DB09FCD17BE70223727913437371184B24
:104CD0001A00B1681942FCD11C34A400A551B36874
:104CE0001342FCD1022331790B433371B368134271
:104CF000FCD164E7012100F01FF829683A00200088
:104D0000FFF7F4FE01997F2800DD0121300000F05B
:104D10005FF854E748970000300000200048004248
:104D20001400002060090020D09B0000000C00400F
:104D3000FF0F7F00FFFF0000182330B51D000400A7
:104D400045430820204A55192856013014D003291C
:104D500012D808006343D156D31801F017FE022879
:104D60000E1B5868CB010221184A9B181A184032B2
:104D70001170012282405A6030BD5868CB01062173
:104D8000124A9B181A1840321170012282405A6050
:104D90009A61F1E75868CB0106210C4A9B181A1852
:104DA00040321170012282405A605A61E4E758682B
:104DB000CB010221054A9B181A18403211700122BA
:104DC00082409A60D8E7C0464897000000440041FE
:104DD0001823F0B508245843114A13181C570134FE
:104DE0001BD0012635005F688356BD400D4ADB01AC
:104DF0009A18906805420BD10C00601E8441D219AC
:104E00004032107834400336A400B0432043107081
:104E1000044A9B18002901D15D61F0BD9D61FCE74A
:104E20004897000000440041182310B5082443436C
:104E300007490020CA181457013408D05B560549A9
:104E4000DB015B18186A5368D8400123184010BD75
:104E5000489700000044004118224243F8B52C4E08
:104E60000300B218127A52B2140001320ED0481C5C
:104E700000240C280AD801F089FD072020202020DA
:104E80002020200B0B0B0B00012464422000F8BDF6
:104E9000092905D10021D8B2FFF74EFF0024F5E71C
:104EA0000A2902D1D8B20839F6E700240B29EDD13E
:104EB000D8B20A39FFF740FFE8E718204343F21859
:104EC0005568F3562C00134ADB016E0817389B18FF
:104ED000C9B204409E19002C0DD00F243036327810
:104EE000090122401143C9B25B19317040331A786D
:104EF00010431870D2E732000F27303216785B1952
:104F0000BE433143117040331A7810431870BDE727
:104F1000489700000044004110B50400FFF782FCF0
:104F2000014B1C6010BDC046340000200122024B22
:104F300052421A607047C04634000020164A10B52D
:104F40001368591C26D0013B1360002B22D172B686
:104F5000124B134A0433934213D9124A0121100011
:104F6000147D0C42FCD02021148BFF319B085B0088
:104F700021431183D3610C4B13800123027D1A421C
:104F8000FCD0BFF34F8F094B094ADA60BFF34F8F54
:104F9000C046FDE710BDC0463400002000200000E0
:104FA000030200000040004102A5FFFF00ED00E009
:104FB0000400FA05704710B5040001F089F82000DC
:104FC00010BD0000F0B5822919D1C3B2294D5A0194
:104FD000AA189169284C80010C40C0218905214301
:104FE00091612649083340187021506128685B019F
:104FF0001A5C8A43110030220A431A54F0BD00297A
:10500000FCD1C026C1B21B4C4B01E3189A681A4D63
:10501000B6052A4032439A60194A800182185A60C4
:105020000A000727246808325201115DB9430F00B6
:105030000121394311559F6910493D4040182E43C5
:105040009E6158617020115D814308001021014369
:10505000115599680B48A218084080214903014363
:1050600099609968890B89039960402311790B43F2
:105070001371C3E7480E0020FFFFFF8FBC0900201B
:105080007C0B0020FF3F00F0EFF31083036001234F
:10509000436072B6704773B5836D0400002B1BD15B
:1050A0000600A83635786846FFF7EEFF019BEDB2A3
:1050B000013B02D33578EDB2FAE768460193FEF77B
:1050C0003DFF002D01D1002076BD2300A4331868D8
:1050D000A0342368C01AF7E76846FFF7D5FF22001F
:1050E0000025019BF432013B02D31578EDB2FAE7BB
:1050F00068460193FEF722FF002DE4D02300F03331
:105100001868EC34E5E7000010B5436D4468DBB285
:105110005A01A218916809480833084080214903C0
:105120000143916091685B01890B8903916022685A
:10513000D318402219790A431A7110BDFF3F00F0BD
:10514000F7B5436D4268DBB21900040008311068FE
:1051500049014118C979C90711D55B01D218936873
:105160009B049B0C0CD12000FFF7CEFF63681A68EC
:10517000636DDBB208335B01D3187F22DA71F7BDB0
:10518000E16D002923D12100A4310B60230001250A
:10519000AC33E56568465360FFF776FF26002000D4
:1051A0002100019BA836013BF430F5315A1C33D065
:1051B000357002785F1ED2B20A700A78002A04D1D4
:1051C00020000193FFF7A0FFE8E73B00EEE7210096
:1051D000F0310B600023E3652300603353606846C1
:1051E000FFF752FF0125260020002100019BF43625
:1051F000013BA830F5315A1C0ED0357002785F1E85
:10520000D2B20A700A78002A04D120000193FFF775
:105210007BFFE8E73B00EEE768460193FEF78EFE72
:10522000A4E737B56B46DC1D00230D00237000F0AA
:1052300039FF210000F0C4FE2B6818182860207880
:105240003EBD00000078002810D00121084B1B68EB
:105250001A898A431A810822198B0A431A83042265
:10526000198B0A431A830022024B1A607047C0460A
:10527000480E0020400E002010B50F4A93699B0B8A
:105280009B03936113680222FF331A729879823A62
:1052900002439A711A7A9207FCD57F24074A21406B
:1052A000937A0800A3431900802301439172917AF5
:1052B0005B420B43937210BD480E0020005000412A
:1052C00010B50C0000F0EEFE210000F0ACFE00284E
:1052D00004D1034A93699B0B9B03936110BDC046A5
:1052E000480E0020F8B50D00832A19D1CBB23B4CF3
:1052F0005A01A21891693A48AD010840C0218905B8
:1053000001439161374920686D1870210833556158
:105310005B011A5C8A43110040220A431A54F8BD0B
:10532000022A55D1304A8B009858002802D00368D1
:105330005B699847F82000F0C7FE0400274E2B4B0E
:105340004660036040220021083004F09AF82200F1
:105350000023A032A3646565E3642365A365E36568
:105360005360D3641372136013654C32137253721B
:10537000FF222B001340590171188868184F083319
:105380000740C020800538438860306807265B01ED
:10539000195CAD00B1430E000321314319542300C1
:1053A000616D606811404901411860334B60616D67
:1053B00063680A401B6852019B180122FF33997AE7
:1053C00020000A439A72FFF79FFE074B5C51A6E745
:1053D00011002800FFF7F6FDA1E7C046480E0020A7
:1053E000FFFFFF8FBC09002094090020E89B00000C
:1053F00070B505000124064BA200D258002A06D041
:10540000210028000134FFF76DFF0A2CF3D170BD95
:10541000680900200B4BCAB20B488901C918530117
:10542000C318596199690832890B89039961036826
:1054300052019A180223D3715179823B0B43537165
:105440007047C046BC090020480E0020084B8A0067
:10545000D05810B5002803D003689B68984710BD4A
:10546000C9B2044B4901591888688004800CF6E7DA
:1054700094090020480E002010B50C00FFF7E6FF4D
:1054800000280CD0064BE4B21B68083464011C19D8
:10549000802362795B42134363710223E37110BD81
:1054A000480E0020F0B51C00304B85B01B6807008B
:1054B0000D000292002B55D02D4E3178C9B2002933
:1054C00002D11920FFF784FC64233370294BAA0012
:1054D000D058002808D0036822005B6802999847DA
:1054E0000400200005B0F0BD29003800FFF7AEFF32
:1054F000844204D929003800FFF7A8FF04000121E5
:10550000EBB21D4E03935B010193F21893689B0B62
:105510009B039360019A336802989B18FF335A7A71
:105520000A435A72154BA901C918220003F0A0FFC3
:10553000002CD6D029003800FFF788FF0028D0D1F2
:105540004021039B326808335B01D318187901436B
:1055500019710121D971019BD318FF339A7A0A433B
:105560009A72BEE701246442BBE7C046400E0020A9
:10557000B009002094090020480E00207C0B002078
:1055800013B56B46DC1D22000123FFF78BFF0128BA
:1055900001D1207816BD01204042FBE770B5CBB2A7
:1055A000124A13485C0189018918021951609168F7
:1055B000104D08330D408021490329434025916057
:1055C0009168890B8903916001685A018A181679DC
:1055D0003543157195796D06FCD55B01C918CB79FA
:1055E000DB07FCD500198068C0B270BD7C0B0020C1
:1055F000480E0020FF3F00F070B50D0000211400A0
:10560000FFF7CCFFA04200D9200000230349A342AA
:1056100003D0CA5CEA540133F9E770BD7C0B00206B
:10562000F0B51E003F4B85B01B680F000192002BA8
:105630003FD08023DB019E423BD83B4C2178C9B24E
:10564000002902D11A20FFF7C3FB64230025237031
:10565000364BBA01D3180293002E2CD0344B1B6862
:105660000393FF233B401C0000930834039B640119
:105670001C19A379DB0921D02E4B2F49186801F0A2
:105680008FF92E4B1721584301F08AF92C4BE27900
:10569000920713D4DA5D002A01D10138F7D2012232
:1056A000DA55009B5A01224B9B189A69920B920380
:1056B0009A6101256D42280005B0F0BD0022204B03
:1056C0003400DA553F2E09D9009B40245A01184B6B
:1056D0009B188022996912060A439A612200019957
:1056E000029803F0C5FE009BA1045A01104B890CDF
:1056F0009B18029A2D195A619A69361B920B9203D4
:105700000A439A61009B039A08335B01D318022273
:10571000DA715979823A0A435A71019B1B19019334
:105720009AE7C046400E0020B1090020BC090020C5
:10573000480E00202C00002040420F007011010094
:10574000B309002070B50D001C000D4BAE01F6181A
:1057500011003000220003F08BFEEDB209496D010B
:105760004D196E61AB69084A20001340AB61AB690B
:10577000A2049B0B920C9B031343AB6170BDC0460C
:10578000BC090020480E0020FF3F00F0F7B5104B89
:1057900001901B780F001500002B0CD10D4B16004B
:1057A0001C78002C09D00C4E0C4834882018641941
:1057B00003F05EFE34802800FEBD002EFBD03A19B7
:1057C000330000210198FFF7BDFF2418361AF4E7D3
:1057D0003C0D00203D0E00203E0E00203D0D00201F
:1057E000F8B50F0016000024012A26D9100003F096
:1057F0002BFE0500380003F011FF032302220130C5
:10580000400028706B7096420DD9397800290AD073
:10581000531CDBB20137A9549E4203D00232EC5430
:10582000D2B2F0E7320029000548FFF7AFFF441E6F
:10583000A041C4B2280003F011FE2000F8BDC0460C
:1058400090090020F0B50024012685B0184B0F0008
:1058500069461E7005000094FFF7E3FC154B01A993
:105860000B806A3BFF3BCB715A330B72009B8C71F0
:1058700009334B800E4B4E7108711C703A00092F92
:105880000FD00D4F09223E700C4E2800009434803A
:10589000FFF77CFF69462800FFF7C3FC3288084900
:1058A0003C702800FFF772FF012005B0F0BDC04634
:1058B0003C0D0020090200003D0E00203E0E00209D
:1058C0003D0D002070B5CE7892B005000C00022E80
:1058D0000BD18B79C9792C4809021943FFF7B2FF24
:1058E000411E8841C0B212B070BD00F0DBFB210048
:1058F00000F07AFB002803D0C117081AC00FF2E7A6
:10590000012E0ED1E279A37912021A431F49112AFE
:1059100013D8D2B2002A10D02800FFF737FF012099
:10592000E1E7032EDFD1A378002B08D1E279A37938
:1059300012021A431649032AEBD90A78ECE7022B24
:1059400008D1E279A379120212491A432800FFF71D
:1059500047FFC8E7012B05D1E279A37912021A4368
:105960000D49F3E7032BBED14122010001A803F04A
:1059700088FD00F097FB01A900F046FBE279A379CE
:1059800012021A4301A9E1E790090020229C0000BD
:10599000129C0000049C0000169C0000CBB204493D
:1059A0005B01C9188B699B0B9B038B617047C046D9
:1059B000480E002037B5050048780C000B2810D899
:1059C00000F0E4FF061B0F2B0F404561494C5A5D68
:1059D000097801AA002906D1022311802800FFF7C7
:1059E000B1FE01203EBD00231380284B1B78012B04
:1059F00000D1137002230021F0E78A780023012AE6
:105A000003D101AA1380224BF0E7204A1370214AE8
:105A100093699B0B9B039361E3E78C78012C06D180
:105A200000211B4B01AA1C7011702300D6E7012036
:105A3000002CD7D1154B174A187093699B0B9B0309
:105A40009361CFE789782800FFF716FCC9E72800A3
:105A5000FFF738FFC6E701230F4ACCE70B78002099
:105A6000DB06BFD12800FFF7C3FCA2780A4B0B4826
:105A70001A6000F003FDCAE70123094ABBE78A78F0
:105A8000074B1A60C3E70020ACE7C046B20900200C
:105A9000BA090020480E0020400E00205C0F0020B4
:105AA000440E00204A4BF7B51E780500002E00D0AA
:105AB0007EE0484C23689A8B12070DD508223100EE
:105AC0009A833000FFF77EFA10222368FF33997A19
:105AD0000A439A72404B1E6023689A8B52071FD567
:105AE00004229A833D4A1378002B0AD01378013B95
:105AF000DBB213701378002B03D101211A20FFF7BA
:105B000067F9374A1378002B0AD01378013BDBB2D0
:105B100013701378002B03D101211920FFF758F9D6
:105B20002368FF331A7A920603D52022597A0A4352
:105B30005A721A7AD20623D569460800294AC0CA81
:105B4000C0C0A268920B9203A2604022587902431F
:105B50005A7160230A7828001A422AD1FFF72AFFD7
:105B60002368FF33002827D08022997952420A43C4
:105B70009A711A7A520603D54022597A0A435A7208
:105B80007F2601252368FF331E722F002368083704
:105B90007F01DB19DB79002B07D0134BAA00D0580B
:105BA00000280DD003681B6898470135082DECD1FB
:105BB000F7BDFFF785FBD3E720210C4A9171D8E7A9
:105BC00029000B4800F02BFC2368DF19FE71ECE77D
:105BD0003D0E0020480E0020400E0020B10900209C
:105BE000B00900207C0B002094090020FF500041E8
:105BF0005C0F002010B50248FFF754FF10BDC046EF
:105C00009009002080235B0003800023436007335A
:105C10000372704783000148C0187047680900206C
:105C2000836C402B09D03F22036CC154036C0133B9
:105C300013400364836C013383647047F7B5050038
:105C40006846FFF721FA00264022019B013B02D360
:105C50002E6D961BFAE768460193FEF76FF9AB6D60
:105C60006846002B4FD1FFF70FFA2900019BA8319E
:105C7000013B5A1C0CD00C785A1EE4B2002C05D102
:105C800068460193FEF75AF92000FEBD1300F0E7C5
:105C9000684601930024FEF751F92A002900A0323A
:105CA0001368A431B4420ED0086898420BD928007A
:105CB000591CEB181160603319780830C9B2FFF72E
:105CC000AFFF0134E9E709689942DDD10023136091
:105CD0000133AB656846FFF7D7F92F002A00002192
:105CE000019BA837013BF532581CC9D03970107898
:105CF0005E1E002805D0117028000193FFF704FAFA
:105D0000EBE73300F0E7FFF7BFF92900019BF4311F
:105D1000013B5A1C06D00C785A1EE4B2002CAFD0BE
:105D20001300F6E7684601930024FEF707F92A00FE
:105D30002900EC321368F031B44202D0086898426E
:105D40001DD8096899429FD1002368461360AB654E
:105D5000FFF79AF92F002A000021019BF437013B3D
:105D6000F532581C00D18BE7397010785E1E002880
:105D700011D0117028000193FFF7C6F9EAE7280057
:105D8000591CEB181160AC3319780830C9B2FFF711
:105D900047FF0134CBE73300E3E710B50400FFF71A
:105DA0004DFF206D10BD10B50400FFF747FF236DB8
:105DB000002B03D0E36CE418207A10BD0120404290
:105DC000FBE7F7B517000E000400FFF737FF684642
:105DD000FFF75AF93F2200259446019B013B5A1CCC
:105DE00019D0BD4215D2226D002A12D00121226D98
:105DF0004942002A0AD06046E26CA218117AE26C8D
:105E000001320240E264226D013A2265715501358A
:105E1000E7E7013BE3E768460193FEF78FF82800C8
:105E2000FEBD0000014B024A1A607047480E002078
:105E300000500041F7B50024514B012105001A2004
:105E40001C70FEF779FF01211A20FEF7C1FF4D4BB0
:105E5000012119201C70FEF76FFF01211920FEF7A8
:105E6000B7FF2023484A0F20D1690B43D361012299
:105E700046490B7813430B70454B197881431970D1
:105E800006211C782143197042490C7822430A707C
:105E90001A7802401A70602219780A431A703E4B31
:105EA0003E4A5A805F78FF09FCD13D48FEF766FC08
:105EB00001233C4C3C4E2268300011780B43137098
:105EC00080223900520003F0DCFA22689378DB0765
:105ED000FCD456621F26354B1B68590B980C9B014E
:105EE000314030405B0FB14200D105211F2800D165
:105EF0000238072B00D1043B31408901178D0191F5
:105F00002B4930400F40019939431185118D07000D
:105F1000B143080038431085118D1803254B7F26A7
:105F20000B4003430C2013850823D17881430B4396
:105F30000321D3702268D3788B4301390B43D3708C
:105F40002268137833401370042322681678334391
:105F500013702268C1241389A40083431648138157
:105F600003591B021B0A0351802303601378134853
:105F70001943012311702B70002100F0EBF8F7BDDD
:105F8000B1090020B009002000040040584400413D
:105F90003C44004159440041000C004006400000D0
:105FA000F55B0000480E00204C0E002024608000AD
:105FB0003FF8FFFFFF8FFFFF00E100E05C0F0020D4
:105FC00070B50E0000254468002C0BD0236831000A
:105FD0005B6820009847002802DB2D18E468F3E78F
:105FE00001256D42280070BD70B50D004468002C7D
:105FF00008D0236829009B6820009847002802D118
:10600000E468F4E7200070BD70B50D004468002C12
:1060100007D0236829002000DB689847E4682D1822
:10602000F5E72C7070BD70B50D004468002C08D0E9
:10603000236829001B6820009847002802D1E468E3
:10604000F4E7200070BDF8B542788B790D00017A35
:106050009B18040000208B4222DC6368834219D124
:106060006560002623786A71EA792B719B1823708A
:10607000AB79B34213D9AB68B7006078DF19FFF78B
:10608000C9FD3B68013603606378F6B20133637083
:10609000EEE70B00D9680029FBD1DD60E1E70120C4
:1060A000F8BD000070B50126054D064C2B68334243
:1060B00003D12000FFF7A6FD2E60200070BDC04672
:1060C0004C0F0020500F002010B503F0BDF910BD9B
:1060D00010B503F0C3F910BD0020704770B50F264E
:1060E000CB1D013902003240D5B22C0000093034FA
:1060F000092A00DD07341C70013B8B42F2D170BDD0
:1061000010B50C000B4B1868FFF7E8FF21000A4B95
:1061100008311868FFF7E2FF2100084B10311868BA
:10612000FFF7DCFF2100064B18311868FFF7D6FF98
:10613000202010BD0CA0800040A0800044A0800062
:1061400048A0800008B4024B9C46103808BC604749
:1061500001610000704770473F20704713B56B46E0
:106160000268D9710733546819000122A04716BD8F
:1061700070B50A260B7892B06E44023305000B709E
:106180003C220021300003F07CF9394801AC069034
:10619000384824210790062020776846364AA174A3
:1061A0002281364A364BA281FD3AFF3A8018C177E8
:1061B000684623390630C17768460730C17702A8A0
:1061C000C1770720F277032608316944C87703A90D
:1061D000CE7710212B366E443170092621851F3170
:1061E00069440E700CA9053E0E70332123800223F2
:1061F00069440B7006360DA90E7022493536A1860A
:106200003B216E44307010A86274E27702703D3218
:1062100069446A440B70137040210022E3702371BB
:106220006371A37341336B44218719705A702B7DBE
:10623000C039A370A37263770133DBB2A3776A7DA1
:106240000B200D0068441543C57731206844037066
:106250003A23501C6B441870412302320A436B44AA
:106260001A70210042220848FFF790FA12B070BD60
:1062700010010424020605240904000001020000A4
:10628000080B0000070500009009002008B4024B2D
:106290009C46103808BC604771610000F8B5027D6B
:1062A0000B7904000D0000279A420CD10B784E7830
:1062B000A12B0AD1212E06D10100072234311C481E
:1062C000FFF764FA01373800F8BD212BFBD1202EEF
:1062D00023D10100072234311548FFF78DF99623A9
:1062E000626BDB009A421FD13B342378DB071BD45F
:1062F000FA20FEF711FE00210D48FFF74FFB0127A2
:10630000232EE0D1EB78AA781B021343094A00211F
:1063100007481360FFF742FBD5E7222EEFD10300B9
:106320008A783B331A70DAE7FEF700FEE3E7C046EF
:10633000900900203800002008B4024B9C46103819
:1063400008BC60479D62000010B53430082200216F
:1063500003F097F810BD000010B5417D006A0131CF
:10636000FFF774F8034B1B6801335A1E934118184A
:1063700010BDC0463C00002010B5417D006A0231CE
:10638000FFF77AF810BD10B5417D006A0231FFF7C2
:1063900041F810BD70B50D00417D040013000231BD
:1063A0002A00006AFFF73CF9002801D1012363604D
:1063B00070BD000010B5054C23685A1C04D1036859
:1063C0005B69984703002060180010BD3C00002066
:1063D000074A0300106810B5411C03D001235B423B
:1063E000136010BD597D186A0131FFF7C9F8F8E74D
:1063F0003C00002070B50500FEF7C6F9F423FF331A
:106400000024984207D93B352C780A20631E9C4112
:10641000E4B2FEF7EFF9200070BD0020704770472E
:10642000FA239B0010B58360114B0022C382030046
:10643000283383610F4B04004260C261180050335F
:1064400023610830631D21622060DA770A4A2F3306
:1064500003CA03C38323A362813BE36280332363C4
:10646000FFF720FE21001031FFF7EDFD200010BDE9
:10647000030200003C9C0000349C0000022110B587
:10648000094B1A68437D5B01D318FF339C7A214383
:106490009972437D0133DBB25B01D3180122FF33D4
:1064A000997A0A439A7210BD480E002010B502492D
:1064B0000248FFF7B5FF10BD900900205C0F0020D7
:1064C0000B0010B50100180002F086FF10BD00009F
:1064D00010B500F053F810BDF0B500258DB0041CC8
:1064E00000F0E0F8234B061C5D576B1C0BD0211C01
:1064F000201C01F083F9071E05D10021201C00F0AB
:10650000EDFA002802D1301C0DB0F0BD012302933A
:10651000194B201C03930A9702F06AFE0022069092
:106520000791049005910023002D15D0100019004B
:1065300001F000FD08900991022D0FD102F05AFFE1
:10654000212303600A9B0193002B0DD10898099920
:1065500002F0A0FE061CD6E70892099302A800F0FC
:10656000FBF80028EED1E9E702F044FF0A9B019313
:106570000360EBE7400000209C9C0000F0B54B005E
:10658000C6460C1CFF2100B55B08C9058B4217DC11
:106590004200804652088A4212DCFE25AD05AC421C
:1065A00036D0A517AC46022567463D40C70F3D4390
:1065B000002A0CD1022D3CD0032D05D1304803E038
:1065C000011C201C00F0B2FA04BC9046F0BD002B68
:1065D00019D08B421FD08A4215D0D31ADB153C2B21
:1065E00029DC002C29DA3C3327DA0020012D34D0B5
:1065F000022D2AD0002DE7D0224900F097FA224937
:1066000000F038FFE0E74346002B10DB1F48DBE7D4
:1066100000F0A4F8D8E79A4224D0022D09D0032D27
:10662000CCD00020012DCFD180200006CCE7184827
:10663000CAE71548C8E71548D8E7211C00F010FC48
:1066400000F0A0F900F08AF8D0E70E4900F06EFAE9
:10665000011C0D4800F00EFFB6E780231B069C4688
:106660006044B1E7022D05D0032D07D0012D03D0E2
:106670000848A9E70848A7E70848A5E70848A3E7A6
:10668000DB0F49C02EBDBB33DB0F4940DB0FC93FD9
:10669000DB0FC9BFDB0F493FE4CB1640DB0F49BF1F
:1066A000E4CB16C02A49430070B50200041C5B0805
:1066B0008B423BD8002B38D000283EDB2549C6153D
:1066C0008B420BD88020000420423DD1002300E003
:1066D0000B005200591C0242FAD0F61A80235202D3
:1066E0001B04520A1A437F3E5300F10700D5930062
:1066F000802270101921002600255204AC189C42FB
:1067000002DCA5181B1BB61801395B0052080029D2
:10671000F4D1002B02D0012301369E43FC239B05BC
:106720009C4676106644C005801970BD011C00F0BF
:106730006FFD211C00F0FAF9F7E7011C00F09AFE4A
:10674000011C00F08DFBF0E701235B42C5E7C0466A
:10675000FFFF7F7FFFFF7F0000207047F0B5C64638
:10676000714B450000B5041C07006D089D4208DD13
:10677000FF23DB059D4271DC002800DC9DE06B48B7
:106780006FE06B4B9D4200DD7AE06A4B9D426BDD12
:1067900001267642211C201C00F03AFD011C804697
:1067A00000F036FD6449051C00F032FD634900F03D
:1067B000BDF9291C00F02CFD614900F0B7F9291C36
:1067C00000F026FD5F4900F0B1F9291C00F020FD22
:1067D0005D4900F0ABF9291C00F01AFD5B4900F09F
:1067E000A5F9414600F014FD59498046281C00F0E7
:1067F0000FFD584900F03EFE291C00F009FD5649E6
:1068000000F038FE291C00F003FD544900F032FE70
:10681000291C00F0FDFC524900F02CFE291C00F060
:10682000F7FC011C404600F081F9211C00F0F0FC4F
:10683000731C44D04B4BB600F15800F01BFE211CDA
:1068400000F018FE484B011CF05800F013FE002F1A
:1068500007DA80231B069C46604402E0011C00F01E
:1068600065F904BC9046F0BD404900F05FF9FE2197
:10687000890500F047F90300201C002BF1D187E7C0
:1068800000F080F83A4B041C9D421DDC394B9D42C0
:1068900039DC011C00F04AF9FE21890500F0EAFD0F
:1068A0008021051CC905201C00F040F9011C281C92
:1068B00000F0D6FA0026041C6CE72F48D1E7011C33
:1068C000201C00F0D7FDCCE72C4B9D4214DCFF21AF
:1068D000890500F0CFFDFF21051C8905201C00F073
:1068E00097FCFE21890500F021F9011C281C00F00D
:1068F000B7FA0226041C4DE7011C214800F0B0FA4B
:106900000326041C46E7FE21890500F0B3FDFE21A5
:10691000051C8905201C00F009F9011C281C00F049
:106920009FFA0126041C35E7FFFF7F50DB0FC93FAC
:10693000FFFFDF3EFFFFFF30D769853C59DA4B3D53
:10694000356B883D6E2EBA3D2549123EABAAAA3E54
:1069500021A215BD6BF16E3D95879D3D388EE33DBF
:10696000CDCC4C3EB49C0000A49C0000CAF24971FE
:10697000FFFF973FFFFF2F3FDB0FC9BFFFFF1B400C
:10698000000080BF400040087047C04602B4714616
:1069900049084900095C49008E4402BC7047C04662
:1069A000002243088B4274D303098B425FD3030A4E
:1069B0008B4244D3030B8B4228D3030C8B420DD361
:1069C000FF22090212BA030C8B4202D312120902EF
:1069D00065D0030B8B4219D300E0090AC30B8B422D
:1069E00001D3CB03C01A5241830B8B4201D38B03DB
:1069F000C01A5241430B8B4201D34B03C01A524180
:106A0000030B8B4201D30B03C01A5241C30A8B42C2
:106A100001D3CB02C01A5241830A8B4201D38B02AD
:106A2000C01A5241430A8B4201D34B02C01A524151
:106A3000030A8B4201D30B02C01A5241CDD2C309C3
:106A40008B4201D3CB01C01A524183098B4201D33F
:106A50008B01C01A524143098B4201D34B01C01A2A
:106A6000524103098B4201D30B01C01A5241C308A2
:106A70008B4201D3CB00C01A524183088B4201D311
:106A80008B00C01A524143088B4201D34B00C01AFD
:106A90005241411A00D20146524110467047FFE769
:106AA00001B5002000F006F802BDC0460029F7D06D
:106AB00076E770477047C0468446081C6146FFE78A
:106AC0001FB500F055FB002801D40021C8421FBDAE
:106AD00010B500F0D7FA4042013010BD10B500F0FB
:106AE00047FB002801DB002010BD012010BDC0467F
:106AF00010B500F03DFB002801DD002010BD012095
:106B000010BDC04610B500F0E5FA002801DC0020F9
:106B100010BD012010BDC04610B500F0DBFA002802
:106B200001DA002010BD012010BDC046F8B547466F
:106B3000CE4643025B0A4400C20F9C464800DD007B
:106B40004B02240E5B0A000E80B598462600914643
:106B5000C90FDB00271A8A4229D0002F15DD002833
:106B60004AD1002B00D095E0ED08FF2C00D188E041
:106B70006B025B0AE6B25B02F605580A3043D207A5
:106B800010430CBC90469946F8BD002F00D087E01A
:106B9000601CC0B2012800DCB6E0EE1A720100D51C
:106BA000C5E0002E3DD1002200260023E3E7002FA0
:106BB00000DC96E000285DD0FF2C60D08022D2045B
:106BC00013431B2F00DDECE02022D21B1800934062
:106BD000F8405A1E93410343ED186B017BD50134F5
:106BE000FF2C00D1B7E0012207262A406B089A4DFE
:106BF0001D4015432E4029E0FF2CB5D08022D20441
:106C000013431B2F00DDB2E02022D21B190093405A
:106C1000F9405A1E93410B43ED1A6B015BD5AD0150
:106C2000AE09300002F0BAFB05388640844265DCCC
:106C3000041B330020200134E340041BA640751ED2
:106C4000AE41334307261D0000241E4001224B465F
:106C50001A40002E04D00F232B40042B00D0043503
:106C60006B0100D480E70134E6B2FF2C2FD1FF2660
:106C7000002380E7002B52D1FF2C00D074E70A00DC
:106C8000ED08002DF3D08023DB032B435B025B0A6E
:106C9000FF2670E7013F002FBED0FF2CB1D163E784
:106CA000002C47D0FF2869D08024E4047A42254391
:106CB0001B2A00DDC5E02C002026D440B21A9540E6
:106CC0006A1E954125435D1B04008946A5E7AB017B
:106CD0005B0A50E7002401224B461A406B07BAD1E9
:106CE00042E7002F3BD10134E0B201284ADDFF2CFE
:106CF000BDD00726ED186D082E40A7E70723574D96
:106D0000241A35401E40A1E7002C1BD1002D6ED166
:106D1000002B00D19AE00A001D003C0024E7013F4F
:106D2000002F00D158E7FF2C00D04AE7A7E75E1BF1
:106D3000894676E7002D1CD10A00FF281FD00400E9
:106D40001D0011E7002D5DD1002B17D180230022FB
:106D5000DB03FF260FE70A00FF2600230BE7002CCA
:106D600021D1002D66D1FF28E9D11D0087E701233D
:106D700052E77A1CA7D0FA43FF2899D10A001D00D8
:106D8000FF24F1E6002E21D1002D4FD0002B4CD056
:106D9000ED186B019ED5314B07362E4001241D4066
:106DA00054E7012318E7FF28DFD08024E4047F4262
:106DB00025431B2F4DDC2026F61B2C00B540FC4044
:106DC0006A1E95412543ED18040006E7002DCCD03E
:106DD000002B00D153E780216046C903084203D04D
:106DE0004046084200D11D000121114047E7002B19
:106DF00000D1B9E6EA1A500125D507265D1B2E40C1
:106E0000894623E7FF24002B00D1ADE680226046AF
:106E1000D203104204D04046104201D11D008946E1
:106E200001224B46FF241A409EE62B00DD080A0093
:106E300000249DE67A1CC6D0FF43FF28B9D11D006F
:106E40001DE701253FE7151E00D044E7002200237F
:106E500091E60125B7E7C046FFFFFF7DFFFFFFFB7F
:106E6000F8B557464E464546DE464402E0B5460074
:106E70008846640A360EC70F002E63D0FF2E24D03A
:106E80008023E400DB041C43002399469B467F3E9D
:106E9000434642465D02D20F5B006D0A1B0E9046D0
:106EA000924665D0FF2B55D080220021ED00D20400
:106EB0007F3B1543F61A43464A467B400F2A00D9CA
:106EC0008DE06D48920082589746002C54D10823DB
:106ED0009946063BFF269B46DAE7002553460229E2
:106EE0001BD0032900D1BFE0012928D030007F301A
:106EF000002820DD6A0704D00F222A40042A00D08F
:106F000004352A0103D530005C4A80301540FE2844
:106F100003DCAC01640AC2B201E0FF220024640277
:106F2000D205600ADB07104318433CBC90469946E3
:106F3000A246AB46F8BD0122101A1B287CDD0022B8
:106F40000024ECE7002C1DD104239946033B0026C6
:106F50009B469DE7FF3E002D20D1022143464A4635
:106F60007B400A430F2AD8D845489200825897465A
:106F7000002D19D10121F1E70C239946093BFF2689
:106F80009B4685E7200002F009FA7626431F9C40C5
:106F900000237642361A99469B4679E74A460323F0
:106FA0001A439146032186E7280002F0F7F9431FB0
:106FB00036189D40763600217DE780240023E403C7
:106FC000FF22ACE700258023DB031C4228D01D42B2
:106FD00026D12B435C02640A4346FF229FE76201ED
:106FE0006C01A24224D21B210025013E0127100082
:106FF0006D005200002801DB944201D8121B3D4372
:1070000001390029F3D11400621E944125436DE734
:10701000BA46594625005346022900D061E77CE76D
:107020008023DB031C436402640A3B00FF2276E7F3
:10703000121B1A210125D9E79E362A00B5402C00E3
:10704000C240651EAC411443620704D00F222240A7
:10705000042A00D00434620103D4A401640A00228B
:107060005DE7012200245AE78024E4032C436402F4
:10707000640AFF2253E7C046C49C0000FFFFFFF7ED
:10708000049D000070B542004E024C0045026D0A9E
:10709000120EC30F760A240EC90FFF2A0FD0FF2C41
:1070A00011D00120A24200D070BDB542FCD18B426C
:1070B0000DD0002AF8D12800451EA841F4E7012090
:1070C000002DF1D1EBE70120002EEDD1E9E7002002
:1070D000EAE7C04670B54A004E02450244006D0A18
:1070E000240EC30F760A120EC90FFF2C15D0FF2AEB
:1070F0000ED0002C15D1002A01D1002E1CD0002D5D
:1071000014D08B4227D00220013B1840013870BDBB
:10711000002EEED002204042F9E7002DFAD1FF2ADE
:107120000ED0002A0ED1002EEDD00BE00123013944
:10713000994308000130EAE70020002DE7D0E2E79C
:10714000002EE7D18B42DED1944205DD0221581E8C
:1071500008400138DBE70024A24204DCB542D2D863
:107160000020B542D3D2581E012398430130CEE708
:1071700030B5420044024D02C30F4800640A120EAB
:107180006D0A000EC90FFF2A12D0FF280CD0002A6A
:1071900012D1002819D1002D17D1002C2BD002209C
:1071A000013B1840013826E0002DF0D0022022E0FB
:1071B000002CFBD1FF281FD000281FD1002D1DD18E
:1071C0000220013B1840013815E0002C0ED08B4204
:1071D000E5D10022904204DCAC42E0D80020AC4271
:1071E00009D2581E01239843013004E001230139DC
:1071F00099430800013030BD002DD7D18B42CED14C
:107200008242E7DD0221581E08400138F3E7C046FC
:10721000F0B54E4657464546DE46E0B543025B0AAA
:10722000450083B00F1C99462D0EC60F002D57D078
:10723000FF2D24D08020DB00C004184300238146AA
:107240009A469B467F3D7C027A00FB0F640A120E31
:10725000984623D0FF2A4BD0E30080240020E4048A
:107260007F3A1C43AD186B1C474601935346774049
:107270003A000F2B48D87D499B00CB589F46002BE6
:1072800000D085E008339A46063B9B467C027A0094
:10729000FB0FFF25640A120E9846DBD1002C00D0AC
:1072A00090E0524601231A4392460120DBE74C4608
:1072B00058461700022824D0032800D1CFE000222E
:1072C000002301284DD15802D205400AFF07104380
:1072D000384303B03CBC90469946A246AB46F0BD4D
:1072E000002B5BD104239A46033B00259B46AAE76B
:1072F000FF35002C60D1524602231A4392460220E9
:10730000B1E7FF220023DEE74B461B0C9C464B46B1
:107310002604360C180461463300220C6446000C27
:1073200043434E435043544380191A0C121896425B
:1073300003D9802149028C4664441B041B0C1004B1
:10734000C01883015E1EB341800E1843130C1B1935
:107350009B0103431C00230179D5012362081C40D3
:107360001443019A7F32002A4DDD630704D00F23B6
:107370002340042B00D00434230103D53C4B019A55
:107380001C408032FE2ABCDCA3015B0AD2B29AE721
:107390000C239A46093BFF259B4654E7180001F051
:1073A000FDFF4A46431F76259A4000236D429146D1
:1073B0002D1A9A469B4646E7524603231A439246A5
:1073C000032050E7200001F0E9FF431F2D1A9C40E5
:1073D000763D002047E780230027DB03FF2272E78A
:1073E000424666E74C463200584662E780234A46EA
:1073F000DB031A4222D01C4220D123435B025B0AEA
:107400004746FF225FE701239A1A1B2A21DC23004B
:107410000199D3409E318C401A0023005C1EA34189
:1074200013435A0704D00F221A40042A00D0043311
:107430005A0111D49B015B0A002244E780234A468B
:10744000DB0313435B025B0A3700FF223BE7019536
:1074500087E70022002336E70122002333E7802359
:10746000DB0323435B025B0AFF222CE7449D000001
:10747000FFFFFFF7F8B54746CE464400C20F80B580
:1074800047024802400A8446664648007F0A240EA6
:10749000F60025009046FB00000EC90FB146FF28FC
:1074A00000D185E001267140261A914257D0002E66
:1074B00043DD002800D07FE04946002900D1AAE042
:1074C000013E002E00D0F7E05B1A5A0100D48BE099
:1074D0009B019C09200001F061FF05388440854232
:1074E00000DDD3E0451B230020200135EB40451B88
:1074F000AC40621E94412343072400251C40012216
:1075000041460A40002C04D00F211940042900D024
:107510000433590100D480E00135ECB2FF2D00D0D6
:10752000A3E0FF2400235B02E405580AD2072043AE
:1075300010430CBC90469946F8BD002E74D1601CD7
:10754000C0B2012800DCA7E04A469C1A620100D5BF
:10755000B6E0002CBED1002200240023E3E7002E79
:1075600000DC85E0002846D0FF2C49D08022484628
:10757000D2041043814601221B2E09DC20204C46F8
:10758000801B84404A462000F240441EA041024332
:107590009B185A0128D50135FF2D00D1A8E0012202
:1075A000072494491A405B080B4013431C40A6E78C
:1075B000002E00D078E775E7FF2C54D08022494692
:1075C000D2041143894601221B2E09DC20214846A2
:1075D000891B88404A460100F240481E81410A4307
:1075E0009B1A5A0100D573E7012241460A40590708
:1075F00000D089E711E04846002858D1FF2C0CD173
:10760000DB08002B00D18CE78020C00303435B0222
:107610005B0AFF2487E7FF2C25D0DB08FF2DF0D085
:107620005B025B0AECB27EE7002C4DD0FF2818D03D
:107630008024E404724223431B2A00DDC4E01C00C2
:107640002025D440AA1A93405A1E934123434A4608
:107650000500D31A884638E7721CF8D0F243FF2899
:10766000EAD10A004B46FF25D7E79B015B0A5AE7A0
:10767000002E41D1651CE9B2012945DDFF2D00D165
:107680004FE707244B445B081C4038E707225A4B5E
:107690002D1A2340144032E7002C1DD1002B7AD143
:1076A0004B46002B00D191E00A000025B5E7013ED2
:1076B000002E19D14B446CE7FF2C84D1FF25ACE799
:1076C0004A468846D41A05E7002BC5D10A00FF2890
:1076D000C8D005004B46A0E7002B49D14B46002BF4
:1076E00077D00A00FF2598E7FF2C00D043E787E713
:1076F0000A00FF24002316E7002C15D1002B57D1D8
:10770000FF28E6D14B467BE7002C20D1002B57D039
:107710004946002953D04B445A0168D50724364ABC
:107720001C4001251340EAE6FF28EBD08022D2045A
:10773000764213431B2E53DC2025AD1B1A00AB40B1
:10774000F2405C1EA34113434B44050021E7002B8C
:10775000D8D04946002900D152E78021C9030F4201
:1077600000D14DE76046084200D049E74B4647E765
:107770004846FF25002800D14FE78022D203174258
:1077800004D06046104201D14B4688460122414652
:10779000FF250A4041E7484600281FD01A1A500129
:1077A00020D54A460724D31A1C4088460025A6E661
:1077B000741CC9D0F643FF28BCD14B4620E799463C
:1077C0004B460025DB082BE7012340E7002200237E
:1077D000A9E680230022DB03FF24A4E600251CE7A2
:1077E0000123B1E7002AF1D013000025FCE60025B3
:1077F000FAE6C046FFFFFF7DFFFFFFFB42024B02A0
:1078000040004900520A5B0A090E000EFF2806D00C
:107810000020FF2902D11800431E98417047FE380E
:10782000002AFBD1F4E7C04641024200C30F490AD7
:10783000120E00207E2A0DD99D2A0CD8802000042B
:107840000143952A0ADC9620821AD1404842002B37
:1078500000D108007047034A9818FBE7963A914018
:10786000F4E7C046FFFFFF7F70B500283DD0C31787
:10787000C5185D40C40F280001F090FD9E22121A29
:10788000962A07DCD2B2082833DD08388540680222
:10789000400A23E0992A0BDD052329001B1AD94051
:1078A00003001B339D402B005D1EAB4119430D00AF
:1078B000052801DD431F9D402B000F490B406E073B
:1078C00009D00F263540042D05D004335D0102D5C3
:1078D0009F220B40121A9B01580AD2B24002D205D5
:1078E000400AE4071043204370BD0024002200201A
:1078F000F4E76802400AF1E7FFFFFFFBF0B54F46EF
:107900004646D6460C000903C0B5490A470F5E003B
:1079100039431F03DB0F9C4665007B0A570F1F434B
:107920006D0DE40F760DA146C000B846D200AB1B2A
:1079300064457BD0002B5FDD002E00D0A4E03E002C
:10794000164300D112E15E1E002E00D09EE1871A80
:107950004346B84280410125C91A4042091A0B0228
:1079600000D431E149024E0A002E00D16EE1300010
:1079700001F014FD0300083B1F2B00DD61E1202214
:107980003900D21A9E40D1409F400E439D4200DDF7
:1079900051E15D1B6B1C1F2B00DD7CE12021C91A0E
:1079A0003D0030008F408840DD40791E8F4131001E
:1079B00007222843D940002507433A40002A09D02E
:1079C0000F233B40042B05D03B1DBB42BF417F42F0
:1079D000C9191F000B0200D426E26A1CC64B5505CC
:1079E0006D0D9A4200D106E1C44AFF080A405307D0
:1079F00052023B43120B8EE0002B00D0B8E06B1C10
:107A00005B055B0D012B00DC30E1871A4346B84271
:107A1000B641CB1A76429E1B330200D54CE13B00A7
:107A20003343A1D100220024002570E0002B00DCAC
:107A3000E5E0002E00D183E0AF4EB54260D0802655
:107A400036043743B846382B00DC3EE14346134347
:107A50001F007A1E97413F18874280414042091813
:107A60000B0200D4B0E0A44B01359D4200D1C3E02D
:107A7000A24A7B080A4001210F401F435108D30747
:107A800007221F433A4099E79B4EB54238D08026E3
:107A900036043743B846382B00DDDCE01F2B00DC12
:107AA00030E11E004746203EF740BC46202B04D064
:107AB0004026F31A46469E403243170063467A1E1C
:107AC00097411F43CCE0002B00D104E2434613430F
:107AD00000D159E14B07C00818438023C9081B0394
